{
  "_format": "hh-sol-artifact-1",
  "contractName": "Marketplace",
  "sourceName": "src/backend/contracts/Marketplace.sol",
  "abi": [
    {
      "inputs": [
        {
          "internalType": "uint256",
          "name": "_feePercent",
          "type": "uint256"
        }
      ],
      "stateMutability": "nonpayable",
      "type": "constructor"
    },
    {
      "anonymous": false,
      "inputs": [
        {
          "indexed": false,
          "internalType": "uint256",
          "name": "itemId",
          "type": "uint256"
        },
        {
          "indexed": true,
          "internalType": "address",
          "name": "nft",
          "type": "address"
        },
        {
          "indexed": false,
          "internalType": "uint256",
          "name": "tokenId",
          "type": "uint256"
        },
        {
          "indexed": false,
          "internalType": "uint256",
          "name": "price",
          "type": "uint256"
        },
        {
          "indexed": true,
          "internalType": "address",
          "name": "seller",
          "type": "address"
        },
        {
          "indexed": true,
          "internalType": "address",
          "name": "buyer",
          "type": "address"
        }
      ],
      "name": "Bought",
      "type": "event"
    },
    {
      "anonymous": false,
      "inputs": [
        {
          "indexed": false,
          "internalType": "uint256",
          "name": "itemId",
          "type": "uint256"
        },
        {
          "indexed": true,
          "internalType": "address",
          "name": "nft",
          "type": "address"
        },
        {
          "indexed": false,
          "internalType": "uint256",
          "name": "tokenId",
          "type": "uint256"
        },
        {
          "indexed": false,
          "internalType": "uint256",
          "name": "price",
          "type": "uint256"
        },
        {
          "indexed": true,
          "internalType": "address",
          "name": "seller",
          "type": "address"
        }
      ],
      "name": "Offered",
      "type": "event"
    },
    {
      "anonymous": false,
      "inputs": [
        {
          "indexed": true,
          "internalType": "address",
          "name": "previousOwner",
          "type": "address"
        },
        {
          "indexed": true,
          "internalType": "address",
          "name": "newOwner",
          "type": "address"
        }
      ],
      "name": "OwnershipTransferred",
      "type": "event"
    },
    {
      "inputs": [],
      "name": "feeAccount",
      "outputs": [
        {
          "internalType": "address payable",
          "name": "",
          "type": "address"
        }
      ],
      "stateMutability": "view",
      "type": "function"
    },
    {
      "inputs": [],
      "name": "feePercent",
      "outputs": [
        {
          "internalType": "uint256",
          "name": "",
          "type": "uint256"
        }
      ],
      "stateMutability": "view",
      "type": "function"
    },
    {
      "inputs": [
        {
          "internalType": "uint256",
          "name": "_itemId",
          "type": "uint256"
        }
      ],
      "name": "getTotalPrice",
      "outputs": [
        {
          "internalType": "uint256",
          "name": "",
          "type": "uint256"
        }
      ],
      "stateMutability": "view",
      "type": "function"
    },
    {
      "inputs": [],
      "name": "itemCount",
      "outputs": [
        {
          "internalType": "uint256",
          "name": "",
          "type": "uint256"
        }
      ],
      "stateMutability": "view",
      "type": "function"
    },
    {
      "inputs": [
        {
          "internalType": "uint256",
          "name": "",
          "type": "uint256"
        }
      ],
      "name": "items",
      "outputs": [
        {
          "internalType": "uint256",
          "name": "itemId",
          "type": "uint256"
        },
        {
          "internalType": "contract IERC721",
          "name": "nft",
          "type": "address"
        },
        {
          "internalType": "uint256",
          "name": "tokenId",
          "type": "uint256"
        },
        {
          "internalType": "uint256",
          "name": "price",
          "type": "uint256"
        },
        {
          "internalType": "address payable",
          "name": "seller",
          "type": "address"
        },
        {
          "internalType": "bool",
          "name": "sold",
          "type": "bool"
        },
        {
          "internalType": "bool",
          "name": "visible",
          "type": "bool"
        }
      ],
      "stateMutability": "view",
      "type": "function"
    },
    {
      "inputs": [
        {
          "internalType": "contract IERC721",
          "name": "_nft",
          "type": "address"
        },
        {
          "internalType": "uint256",
          "name": "_tokenId",
          "type": "uint256"
        },
        {
          "internalType": "uint256",
          "name": "_price",
          "type": "uint256"
        }
      ],
      "name": "makeItem",
      "outputs": [],
      "stateMutability": "nonpayable",
      "type": "function"
    },
    {
      "inputs": [],
      "name": "owner",
      "outputs": [
        {
          "internalType": "address",
          "name": "",
          "type": "address"
        }
      ],
      "stateMutability": "view",
      "type": "function"
    },
    {
      "inputs": [
        {
          "internalType": "uint256",
          "name": "_itemId",
          "type": "uint256"
        }
      ],
      "name": "purchaseItem",
      "outputs": [],
      "stateMutability": "payable",
      "type": "function"
    },
    {
      "inputs": [],
      "name": "renounceOwnership",
      "outputs": [],
      "stateMutability": "nonpayable",
      "type": "function"
    },
    {
      "inputs": [
        {
          "internalType": "uint256",
          "name": "_itemId",
          "type": "uint256"
        },
        {
          "internalType": "bool",
          "name": "_visible",
          "type": "bool"
        }
      ],
      "name": "setVisibility",
      "outputs": [],
      "stateMutability": "nonpayable",
      "type": "function"
    },
    {
      "inputs": [
        {
          "internalType": "address",
          "name": "newOwner",
          "type": "address"
        }
      ],
      "name": "transferOwnership",
      "outputs": [],
      "stateMutability": "nonpayable",
      "type": "function"
    }
  ],
  "bytecode": "0x60c06040523480156200001157600080fd5b5060405162001a8038038062001a8083398181016040528101906200003791906200018a565b60016000819055506200005f62000053620000a560201b60201c565b620000ad60201b60201c565b3373ffffffffffffffffffffffffffffffffffffffff1660808173ffffffffffffffffffffffffffffffffffffffff1660601b815250508060a0818152505050620001da565b600033905090565b6000600160009054906101000a900473ffffffffffffffffffffffffffffffffffffffff16905081600160006101000a81548173ffffffffffffffffffffffffffffffffffffffff021916908373ffffffffffffffffffffffffffffffffffffffff1602179055508173ffffffffffffffffffffffffffffffffffffffff168173ffffffffffffffffffffffffffffffffffffffff167f8be0079c531659141344cd1fd0a4f28419497f9722a3daafe3b4186f6b6457e060405160405180910390a35050565b6000815190506200018481620001c0565b92915050565b6000602082840312156200019d57600080fd5b6000620001ad8482850162000173565b91505092915050565b6000819050919050565b620001cb81620001b6565b8114620001d757600080fd5b50565b60805160601c60a05161186f620002116000396000818161032f015261041d01526000818161027d015261065d015261186f6000f3fe60806040526004361061009c5760003560e01c8063bfb231d211610064578063bfb231d214610164578063ca7dd375146101a7578063d38ea5bf146101e4578063e3f54d2d14610200578063f2fde38b14610229578063fa00afc7146102525761009c565b806365e17c9d146100a15780636bfb0d01146100cc578063715018a6146100f75780637fd6f15c1461010e5780638da5cb5b14610139575b600080fd5b3480156100ad57600080fd5b506100b661027b565b6040516100c3919061116a565b60405180910390f35b3480156100d857600080fd5b506100e161029f565b6040516100ee91906112dc565b60405180910390f35b34801561010357600080fd5b5061010c6102a5565b005b34801561011a57600080fd5b5061012361032d565b60405161013091906112dc565b60405180910390f35b34801561014557600080fd5b5061014e610351565b60405161015b919061114f565b60405180910390f35b34801561017057600080fd5b5061018b60048036038101906101869190610f64565b61037b565b60405161019e97969594939291906112f7565b60405180910390f35b3480156101b357600080fd5b506101ce60048036038101906101c99190610f64565b610417565b6040516101db91906112dc565b60405180910390f35b6101fe60048036038101906101f99190610f64565b61047a565b005b34801561020c57600080fd5b5061022760048036038101906102229190610f8d565b61087f565b005b34801561023557600080fd5b50610250600480360381019061024b9190610eec565b6109d7565b005b34801561025e57600080fd5b5061027960048036038101906102749190610f15565b610acf565b005b7f000000000000000000000000000000000000000000000000000000000000000081565b60025481565b6102ad610dca565b73ffffffffffffffffffffffffffffffffffffffff166102cb610351565b73ffffffffffffffffffffffffffffffffffffffff1614610321576040517f08c379a00000000000000000000000000000000000000000000000000000000081526004016103189061129c565b60405180910390fd5b61032b6000610dd2565b565b7f000000000000000000000000000000000000000000000000000000000000000081565b6000600160009054906101000a900473ffffffffffffffffffffffffffffffffffffffff16905090565b60036020528060005260406000206000915090508060000154908060010160009054906101000a900473ffffffffffffffffffffffffffffffffffffffff16908060020154908060030154908060040160009054906101000a900473ffffffffffffffffffffffffffffffffffffffff16908060040160149054906101000a900460ff16908060040160159054906101000a900460ff16905087565b600060647f0000000000000000000000000000000000000000000000000000000000000000606461044891906113ae565b60036000858152602001908152602001600020600301546104699190611435565b6104739190611404565b9050919050565b600260005414156104c0576040517f08c379a00000000000000000000000000000000000000000000000000000000081526004016104b7906112bc565b60405180910390fd5b600260008190555060006104d382610417565b905060006003600084815260200190815260200160002090506000831180156104fe57506002548311155b801561051857508060040160159054906101000a900460ff165b610557576040517f08c379a000000000000000000000000000000000000000000000000000000000815260040161054e906111bc565b60405180910390fd5b8134101561059a576040517f08c379a00000000000000000000000000000000000000000000000000000000081526004016105919061127c565b60405180910390fd5b8060040160149054906101000a900460ff16156105ec576040517f08c379a00000000000000000000000000000000000000000000000000000000081526004016105e3906111dc565b60405180910390fd5b8060040160009054906101000a900473ffffffffffffffffffffffffffffffffffffffff1673ffffffffffffffffffffffffffffffffffffffff166108fc82600301549081150290604051600060405180830381858888f1935050505015801561065a573d6000803e3d6000fd5b507f000000000000000000000000000000000000000000000000000000000000000073ffffffffffffffffffffffffffffffffffffffff166108fc8260030154846106a5919061148f565b9081150290604051600060405180830381858888f193505050501580156106d0573d6000803e3d6000fd5b5060018160040160146101000a81548160ff02191690831515021790555060008160040160156101000a81548160ff0219169083151502179055508060010160009054906101000a900473ffffffffffffffffffffffffffffffffffffffff1673ffffffffffffffffffffffffffffffffffffffff166323b872dd303384600201546040518463ffffffff1660e01b815260040161077093929190611185565b600060405180830381600087803b15801561078a57600080fd5b505af115801561079e573d6000803e3d6000fd5b505050503373ffffffffffffffffffffffffffffffffffffffff168160040160009054906101000a900473ffffffffffffffffffffffffffffffffffffffff1673ffffffffffffffffffffffffffffffffffffffff168260010160009054906101000a900473ffffffffffffffffffffffffffffffffffffffff1673ffffffffffffffffffffffffffffffffffffffff167f8b4c9c8a607d67b321582dd8461041b1dc2ceeca70c8b7f37f8e02095cf2e76d868560020154866003015460405161086a93929190611366565b60405180910390a45050600160008190555050565b60006003600084815260200190815260200160002090508060040160009054906101000a900473ffffffffffffffffffffffffffffffffffffffff1673ffffffffffffffffffffffffffffffffffffffff163373ffffffffffffffffffffffffffffffffffffffff16148061092657506108f7610351565b73ffffffffffffffffffffffffffffffffffffffff163373ffffffffffffffffffffffffffffffffffffffff16145b610965576040517f08c379a000000000000000000000000000000000000000000000000000000000815260040161095c906111fc565b60405180910390fd5b60008311801561097757506002548311155b6109b6576040517f08c379a00000000000000000000000000000000000000000000000000000000081526004016109ad9061123c565b60405180910390fd5b818160040160156101000a81548160ff021916908315150217905550505050565b6109df610dca565b73ffffffffffffffffffffffffffffffffffffffff166109fd610351565b73ffffffffffffffffffffffffffffffffffffffff1614610a53576040517f08c379a0000000000000000000000000000000000000000000000000000000008152600401610a4a9061129c565b60405180910390fd5b600073ffffffffffffffffffffffffffffffffffffffff168173ffffffffffffffffffffffffffffffffffffffff161415610ac3576040517f08c379a0000000000000000000000000000000000000000000000000000000008152600401610aba9061125c565b60405180910390fd5b610acc81610dd2565b50565b60026000541415610b15576040517f08c379a0000000000000000000000000000000000000000000000000000000008152600401610b0c906112bc565b60405180910390fd5b600260008190555060008111610b60576040517f08c379a0000000000000000000000000000000000000000000000000000000008152600401610b579061121c565b60405180910390fd5b60026000815480929190610b7390611553565b91905055508273ffffffffffffffffffffffffffffffffffffffff166323b872dd3330856040518463ffffffff1660e01b8152600401610bb593929190611185565b600060405180830381600087803b158015610bcf57600080fd5b505af1158015610be3573d6000803e3d6000fd5b505050506040518060e0016040528060025481526020018473ffffffffffffffffffffffffffffffffffffffff1681526020018381526020018281526020013373ffffffffffffffffffffffffffffffffffffffff168152602001600015158152602001600115158152506003600060025481526020019081526020016000206000820151816000015560208201518160010160006101000a81548173ffffffffffffffffffffffffffffffffffffffff021916908373ffffffffffffffffffffffffffffffffffffffff160217905550604082015181600201556060820151816003015560808201518160040160006101000a81548173ffffffffffffffffffffffffffffffffffffffff021916908373ffffffffffffffffffffffffffffffffffffffff16021790555060a08201518160040160146101000a81548160ff02191690831515021790555060c08201518160040160156101000a81548160ff0219169083151502179055509050503373ffffffffffffffffffffffffffffffffffffffff168373ffffffffffffffffffffffffffffffffffffffff167f655a0cf9c8db81512be9a76dc1c5ae5380b8816ce6ad659cd61b715e2999d59a6002548585604051610db593929190611366565b60405180910390a36001600081905550505050565b600033905090565b6000600160009054906101000a900473ffffffffffffffffffffffffffffffffffffffff16905081600160006101000a81548173ffffffffffffffffffffffffffffffffffffffff021916908373ffffffffffffffffffffffffffffffffffffffff1602179055508173ffffffffffffffffffffffffffffffffffffffff168173ffffffffffffffffffffffffffffffffffffffff167f8be0079c531659141344cd1fd0a4f28419497f9722a3daafe3b4186f6b6457e060405160405180910390a35050565b600081359050610ea7816117dd565b92915050565b600081359050610ebc816117f4565b92915050565b600081359050610ed18161180b565b92915050565b600081359050610ee681611822565b92915050565b600060208284031215610efe57600080fd5b6000610f0c84828501610e98565b91505092915050565b600080600060608486031215610f2a57600080fd5b6000610f3886828701610ec2565b9350506020610f4986828701610ed7565b9250506040610f5a86828701610ed7565b9150509250925092565b600060208284031215610f7657600080fd5b6000610f8484828501610ed7565b91505092915050565b60008060408385031215610fa057600080fd5b6000610fae85828601610ed7565b9250506020610fbf85828601610ead565b9150509250929050565b610fd2816114d5565b82525050565b610fe1816114c3565b82525050565b610ff0816114e7565b82525050565b610fff8161152f565b82525050565b600061101260218361139d565b915061101d826115fa565b604082019050919050565b600061103560118361139d565b915061104082611649565b602082019050919050565b6000611058600c8361139d565b915061106382611672565b602082019050919050565b600061107b601f8361139d565b91506110868261169b565b602082019050919050565b600061109e600f8361139d565b91506110a9826116c4565b602082019050919050565b60006110c160268361139d565b91506110cc826116ed565b604082019050919050565b60006110e460338361139d565b91506110ef8261173c565b604082019050919050565b600061110760208361139d565b91506111128261178b565b602082019050919050565b600061112a601f8361139d565b9150611135826117b4565b602082019050919050565b61114981611525565b82525050565b60006020820190506111646000830184610fd8565b92915050565b600060208201905061117f6000830184610fc9565b92915050565b600060608201905061119a6000830186610fd8565b6111a76020830185610fd8565b6111b46040830184611140565b949350505050565b600060208201905081810360008301526111d581611005565b9050919050565b600060208201905081810360008301526111f581611028565b9050919050565b600060208201905081810360008301526112158161104b565b9050919050565b600060208201905081810360008301526112358161106e565b9050919050565b6000602082019050818103600083015261125581611091565b9050919050565b60006020820190508181036000830152611275816110b4565b9050919050565b60006020820190508181036000830152611295816110d7565b9050919050565b600060208201905081810360008301526112b5816110fa565b9050919050565b600060208201905081810360008301526112d58161111d565b9050919050565b60006020820190506112f16000830184611140565b92915050565b600060e08201905061130c600083018a611140565b6113196020830189610ff6565b6113266040830188611140565b6113336060830187611140565b6113406080830186610fc9565b61134d60a0830185610fe7565b61135a60c0830184610fe7565b98975050505050505050565b600060608201905061137b6000830186611140565b6113886020830185611140565b6113956040830184611140565b949350505050565b600082825260208201905092915050565b60006113b982611525565b91506113c483611525565b9250827fffffffffffffffffffffffffffffffffffffffffffffffffffffffffffffffff038211156113f9576113f861159c565b5b828201905092915050565b600061140f82611525565b915061141a83611525565b92508261142a576114296115cb565b5b828204905092915050565b600061144082611525565b915061144b83611525565b9250817fffffffffffffffffffffffffffffffffffffffffffffffffffffffffffffffff04831182151516156114845761148361159c565b5b828202905092915050565b600061149a82611525565b91506114a583611525565b9250828210156114b8576114b761159c565b5b828203905092915050565b60006114ce82611505565b9050919050565b60006114e082611505565b9050919050565b60008115159050919050565b60006114fe826114c3565b9050919050565b600073ffffffffffffffffffffffffffffffffffffffff82169050919050565b6000819050919050565b600061153a82611541565b9050919050565b600061154c82611505565b9050919050565b600061155e82611525565b91507fffffffffffffffffffffffffffffffffffffffffffffffffffffffffffffffff8214156115915761159061159c565b5b600182019050919050565b7f4e487b7100000000000000000000000000000000000000000000000000000000600052601160045260246000fd5b7f4e487b7100000000000000000000000000000000000000000000000000000000600052601260045260246000fd5b7f6974656d20646f65736e2774206578697374206f72206e6f742076697369626c60008201527f6500000000000000000000000000000000000000000000000000000000000000602082015250565b7f6974656d20616c726561647920736f6c64000000000000000000000000000000600082015250565b7f556e617574686f72697a65640000000000000000000000000000000000000000600082015250565b7f5072696365206d7573742062652067726561746572207468616e207a65726f00600082015250565b7f496e76616c6964206974656d2049440000000000000000000000000000000000600082015250565b7f4f776e61626c653a206e6577206f776e657220697320746865207a65726f206160008201527f6464726573730000000000000000000000000000000000000000000000000000602082015250565b7f6e6f7420656e6f75676820657468657220746f20636f766572206974656d207060008201527f7269636520616e64206d61726b65742066656500000000000000000000000000602082015250565b7f4f776e61626c653a2063616c6c6572206973206e6f7420746865206f776e6572600082015250565b7f5265656e7472616e637947756172643a207265656e7472616e742063616c6c00600082015250565b6117e6816114c3565b81146117f157600080fd5b50565b6117fd816114e7565b811461180857600080fd5b50565b611814816114f3565b811461181f57600080fd5b50565b61182b81611525565b811461183657600080fd5b5056fea2646970667358221220a24d51f5ad4704f2843a048448194bf6448c307f2941672c33cb832cb830d19964736f6c63430008040033",
  "linkReferences": {},
  "deployedLinkReferences": {}
}