{
  "_format": "hh-sol-artifact-1",
  "contractName": "NFT",
  "sourceName": "src/backend/contracts/NFT.sol",
  "abi": [
    {
      "inputs": [],
      "stateMutability": "nonpayable",
      "type": "constructor"
    },
    {
      "anonymous": false,
      "inputs": [
        {
          "indexed": true,
          "internalType": "address",
          "name": "owner",
          "type": "address"
        },
        {
          "indexed": true,
          "internalType": "address",
          "name": "approved",
          "type": "address"
        },
        {
          "indexed": true,
          "internalType": "uint256",
          "name": "tokenId",
          "type": "uint256"
        }
      ],
      "name": "Approval",
      "type": "event"
    },
    {
      "anonymous": false,
      "inputs": [
        {
          "indexed": true,
          "internalType": "address",
          "name": "owner",
          "type": "address"
        },
        {
          "indexed": true,
          "internalType": "address",
          "name": "operator",
          "type": "address"
        },
        {
          "indexed": false,
          "internalType": "bool",
          "name": "approved",
          "type": "bool"
        }
      ],
      "name": "ApprovalForAll",
      "type": "event"
    },
    {
      "anonymous": false,
      "inputs": [
        {
          "indexed": true,
          "internalType": "uint256",
          "name": "tokenId",
          "type": "uint256"
        },
        {
          "indexed": true,
          "internalType": "address",
          "name": "from",
          "type": "address"
        },
        {
          "indexed": true,
          "internalType": "address",
          "name": "to",
          "type": "address"
        }
      ],
      "name": "OwnershipTransferred",
      "type": "event"
    },
    {
      "anonymous": false,
      "inputs": [
        {
          "indexed": true,
          "internalType": "address",
          "name": "previousOwner",
          "type": "address"
        },
        {
          "indexed": true,
          "internalType": "address",
          "name": "newOwner",
          "type": "address"
        }
      ],
      "name": "OwnershipTransferred",
      "type": "event"
    },
    {
      "anonymous": false,
      "inputs": [
        {
          "indexed": true,
          "internalType": "uint256",
          "name": "tokenId",
          "type": "uint256"
        },
        {
          "indexed": true,
          "internalType": "address",
          "name": "from",
          "type": "address"
        },
        {
          "indexed": false,
          "internalType": "address",
          "name": "to",
          "type": "address"
        }
      ],
      "name": "TokenBridged",
      "type": "event"
    },
    {
      "anonymous": false,
      "inputs": [
        {
          "indexed": true,
          "internalType": "uint256",
          "name": "tokenId",
          "type": "uint256"
        },
        {
          "indexed": true,
          "internalType": "address",
          "name": "owner",
          "type": "address"
        }
      ],
      "name": "TokenLocked",
      "type": "event"
    },
    {
      "anonymous": false,
      "inputs": [
        {
          "indexed": true,
          "internalType": "uint256",
          "name": "tokenId",
          "type": "uint256"
        },
        {
          "indexed": true,
          "internalType": "address",
          "name": "owner",
          "type": "address"
        }
      ],
      "name": "TokenUnlocked",
      "type": "event"
    },
    {
      "anonymous": false,
      "inputs": [
        {
          "indexed": true,
          "internalType": "address",
          "name": "from",
          "type": "address"
        },
        {
          "indexed": true,
          "internalType": "address",
          "name": "to",
          "type": "address"
        },
        {
          "indexed": true,
          "internalType": "uint256",
          "name": "tokenId",
          "type": "uint256"
        }
      ],
      "name": "Transfer",
      "type": "event"
    },
    {
      "inputs": [
        {
          "internalType": "address",
          "name": "to",
          "type": "address"
        },
        {
          "internalType": "uint256",
          "name": "tokenId",
          "type": "uint256"
        }
      ],
      "name": "approve",
      "outputs": [],
      "stateMutability": "nonpayable",
      "type": "function"
    },
    {
      "inputs": [
        {
          "internalType": "address",
          "name": "owner",
          "type": "address"
        }
      ],
      "name": "balanceOf",
      "outputs": [
        {
          "internalType": "uint256",
          "name": "",
          "type": "uint256"
        }
      ],
      "stateMutability": "view",
      "type": "function"
    },
    {
      "inputs": [
        {
          "internalType": "address",
          "name": "_to",
          "type": "address"
        },
        {
          "internalType": "uint256",
          "name": "_tokenId",
          "type": "uint256"
        }
      ],
      "name": "bridgeTransfer",
      "outputs": [],
      "stateMutability": "nonpayable",
      "type": "function"
    },
    {
      "inputs": [
        {
          "internalType": "uint256",
          "name": "tokenId",
          "type": "uint256"
        }
      ],
      "name": "getApproved",
      "outputs": [
        {
          "internalType": "address",
          "name": "",
          "type": "address"
        }
      ],
      "stateMutability": "view",
      "type": "function"
    },
    {
      "inputs": [
        {
          "internalType": "address",
          "name": "owner",
          "type": "address"
        },
        {
          "internalType": "address",
          "name": "operator",
          "type": "address"
        }
      ],
      "name": "isApprovedForAll",
      "outputs": [
        {
          "internalType": "bool",
          "name": "",
          "type": "bool"
        }
      ],
      "stateMutability": "view",
      "type": "function"
    },
    {
      "inputs": [
        {
          "internalType": "uint256",
          "name": "tokenId",
          "type": "uint256"
        }
      ],
      "name": "lockToken",
      "outputs": [],
      "stateMutability": "nonpayable",
      "type": "function"
    },
    {
      "inputs": [
        {
          "internalType": "string",
          "name": "_tokenURI",
          "type": "string"
        }
      ],
      "name": "mint",
      "outputs": [
        {
          "internalType": "uint256",
          "name": "",
          "type": "uint256"
        }
      ],
      "stateMutability": "nonpayable",
      "type": "function"
    },
    {
      "inputs": [],
      "name": "name",
      "outputs": [
        {
          "internalType": "string",
          "name": "",
          "type": "string"
        }
      ],
      "stateMutability": "view",
      "type": "function"
    },
    {
      "inputs": [],
      "name": "owner",
      "outputs": [
        {
          "internalType": "address",
          "name": "",
          "type": "address"
        }
      ],
      "stateMutability": "view",
      "type": "function"
    },
    {
      "inputs": [
        {
          "internalType": "uint256",
          "name": "tokenId",
          "type": "uint256"
        }
      ],
      "name": "ownerOf",
      "outputs": [
        {
          "internalType": "address",
          "name": "",
          "type": "address"
        }
      ],
      "stateMutability": "view",
      "type": "function"
    },
    {
      "inputs": [],
      "name": "renounceOwnership",
      "outputs": [],
      "stateMutability": "nonpayable",
      "type": "function"
    },
    {
      "inputs": [
        {
          "internalType": "address",
          "name": "from",
          "type": "address"
        },
        {
          "internalType": "address",
          "name": "to",
          "type": "address"
        },
        {
          "internalType": "uint256",
          "name": "tokenId",
          "type": "uint256"
        }
      ],
      "name": "safeTransferFrom",
      "outputs": [],
      "stateMutability": "nonpayable",
      "type": "function"
    },
    {
      "inputs": [
        {
          "internalType": "address",
          "name": "from",
          "type": "address"
        },
        {
          "internalType": "address",
          "name": "to",
          "type": "address"
        },
        {
          "internalType": "uint256",
          "name": "tokenId",
          "type": "uint256"
        },
        {
          "internalType": "bytes",
          "name": "_data",
          "type": "bytes"
        }
      ],
      "name": "safeTransferFrom",
      "outputs": [],
      "stateMutability": "nonpayable",
      "type": "function"
    },
    {
      "inputs": [
        {
          "internalType": "address",
          "name": "operator",
          "type": "address"
        },
        {
          "internalType": "bool",
          "name": "approved",
          "type": "bool"
        }
      ],
      "name": "setApprovalForAll",
      "outputs": [],
      "stateMutability": "nonpayable",
      "type": "function"
    },
    {
      "inputs": [
        {
          "internalType": "bytes4",
          "name": "interfaceId",
          "type": "bytes4"
        }
      ],
      "name": "supportsInterface",
      "outputs": [
        {
          "internalType": "bool",
          "name": "",
          "type": "bool"
        }
      ],
      "stateMutability": "view",
      "type": "function"
    },
    {
      "inputs": [],
      "name": "symbol",
      "outputs": [
        {
          "internalType": "string",
          "name": "",
          "type": "string"
        }
      ],
      "stateMutability": "view",
      "type": "function"
    },
    {
      "inputs": [],
      "name": "tokenCount",
      "outputs": [
        {
          "internalType": "uint256",
          "name": "",
          "type": "uint256"
        }
      ],
      "stateMutability": "view",
      "type": "function"
    },
    {
      "inputs": [
        {
          "internalType": "uint256",
          "name": "tokenId",
          "type": "uint256"
        }
      ],
      "name": "tokenURI",
      "outputs": [
        {
          "internalType": "string",
          "name": "",
          "type": "string"
        }
      ],
      "stateMutability": "view",
      "type": "function"
    },
    {
      "inputs": [
        {
          "internalType": "address",
          "name": "from",
          "type": "address"
        },
        {
          "internalType": "address",
          "name": "to",
          "type": "address"
        },
        {
          "internalType": "uint256",
          "name": "tokenId",
          "type": "uint256"
        }
      ],
      "name": "transferFrom",
      "outputs": [],
      "stateMutability": "nonpayable",
      "type": "function"
    },
    {
      "inputs": [
        {
          "internalType": "address",
          "name": "newOwner",
          "type": "address"
        }
      ],
      "name": "transferOwnership",
      "outputs": [],
      "stateMutability": "nonpayable",
      "type": "function"
    },
    {
      "inputs": [
        {
          "internalType": "uint256",
          "name": "tokenId",
          "type": "uint256"
        },
        {
          "internalType": "address",
          "name": "to",
          "type": "address"
        }
      ],
      "name": "transferOwnershipOfToken",
      "outputs": [],
      "stateMutability": "nonpayable",
      "type": "function"
    },
    {
      "inputs": [
        {
          "internalType": "uint256",
          "name": "tokenId",
          "type": "uint256"
        }
      ],
      "name": "unlockToken",
      "outputs": [],
      "stateMutability": "nonpayable",
      "type": "function"
    }
  ],
  "bytecode": "0x60806040523480156200001157600080fd5b506040518060400160405280600581526020017f4d794e46540000000000000000000000000000000000000000000000000000008152506040518060400160405280600381526020017f4d4e540000000000000000000000000000000000000000000000000000000000815250816000908051906020019062000096929190620001a6565b508060019080519060200190620000af929190620001a6565b505050620000d2620000c6620000d860201b60201c565b620000e060201b60201c565b620002bb565b600033905090565b6000600760009054906101000a900473ffffffffffffffffffffffffffffffffffffffff16905081600760006101000a81548173ffffffffffffffffffffffffffffffffffffffff021916908373ffffffffffffffffffffffffffffffffffffffff1602179055508173ffffffffffffffffffffffffffffffffffffffff168173ffffffffffffffffffffffffffffffffffffffff167f8be0079c531659141344cd1fd0a4f28419497f9722a3daafe3b4186f6b6457e060405160405180910390a35050565b828054620001b49062000256565b90600052602060002090601f016020900481019282620001d8576000855562000224565b82601f10620001f357805160ff191683800117855562000224565b8280016001018555821562000224579182015b828111156200022357825182559160200191906001019062000206565b5b50905062000233919062000237565b5090565b5b808211156200025257600081600090555060010162000238565b5090565b600060028204905060018216806200026f57607f821691505b602082108114156200028657620002856200028c565b5b50919050565b7f4e487b7100000000000000000000000000000000000000000000000000000000600052602260045260246000fd5b61386680620002cb6000396000f3fe608060405234801561001057600080fd5b50600436106101425760003560e01c80638da5cb5b116100b8578063b88d4fde1161007c578063b88d4fde1461034d578063c87b56dd14610369578063d85d3d2714610399578063dd2e0ac0146103c9578063e985e9c5146103e5578063f2fde38b1461041557610142565b80638da5cb5b146102bb57806395d89b41146102d95780639f181b5e146102f7578063a22cb46514610315578063b35dcee01461033157610142565b806342842e0e1161010a57806342842e0e146101fd57806342e70ec9146102195780636352211e1461023557806370a0823114610265578063715018a61461029557806380f203631461029f57610142565b806301ffc9a71461014757806306fdde0314610177578063081812fc14610195578063095ea7b3146101c557806323b872dd146101e1575b600080fd5b610161600480360381019061015c919061250a565b610431565b60405161016e9190612a82565b60405180910390f35b61017f610513565b60405161018c9190612a9d565b60405180910390f35b6101af60048036038101906101aa919061259d565b6105a5565b6040516101bc9190612a1b565b60405180910390f35b6101df60048036038101906101da91906124ce565b61062a565b005b6101fb60048036038101906101f691906123c8565b610742565b005b610217600480360381019061021291906123c8565b6107a2565b005b610233600480360381019061022e91906125c6565b6107c2565b005b61024f600480360381019061024a919061259d565b610912565b60405161025c9190612a1b565b60405180910390f35b61027f600480360381019061027a9190612363565b6109c4565b60405161028c9190612d9f565b60405180910390f35b61029d610a7c565b005b6102b960048036038101906102b4919061259d565b610b04565b005b6102c3610c3b565b6040516102d09190612a1b565b60405180910390f35b6102e1610c65565b6040516102ee9190612a9d565b60405180910390f35b6102ff610cf7565b60405161030c9190612d9f565b60405180910390f35b61032f600480360381019061032a9190612492565b610cfd565b005b61034b600480360381019061034691906124ce565b610d13565b005b61036760048036038101906103629190612417565b610e5b565b005b610383600480360381019061037e919061259d565b610ebd565b6040516103909190612a9d565b60405180910390f35b6103b360048036038101906103ae919061255c565b61100f565b6040516103c09190612d9f565b60405180910390f35b6103e360048036038101906103de919061259d565b61104b565b005b6103ff60048036038101906103fa919061238c565b61119a565b60405161040c9190612a82565b60405180910390f35b61042f600480360381019061042a9190612363565b61122e565b005b60007f80ac58cd000000000000000000000000000000000000000000000000000000007bffffffffffffffffffffffffffffffffffffffffffffffffffffffff1916827bffffffffffffffffffffffffffffffffffffffffffffffffffffffff191614806104fc57507f5b5e139f000000000000000000000000000000000000000000000000000000007bffffffffffffffffffffffffffffffffffffffffffffffffffffffff1916827bffffffffffffffffffffffffffffffffffffffffffffffffffffffff1916145b8061050c575061050b82611326565b5b9050919050565b60606000805461052290612ff5565b80601f016020809104026020016040519081016040528092919081815260200182805461054e90612ff5565b801561059b5780601f106105705761010080835404028352916020019161059b565b820191906000526020600020905b81548152906001019060200180831161057e57829003601f168201915b5050505050905090565b60006105b082611390565b6105ef576040517f08c379a00000000000000000000000000000000000000000000000000000000081526004016105e690612c9f565b60405180910390fd5b6004600083815260200190815260200160002060009054906101000a900473ffffffffffffffffffffffffffffffffffffffff169050919050565b600061063582610912565b90508073ffffffffffffffffffffffffffffffffffffffff168373ffffffffffffffffffffffffffffffffffffffff1614156106a6576040517f08c379a000000000000000000000000000000000000000000000000000000000815260040161069d90612cff565b60405180910390fd5b8073ffffffffffffffffffffffffffffffffffffffff166106c56113fc565b73ffffffffffffffffffffffffffffffffffffffff1614806106f457506106f3816106ee6113fc565b61119a565b5b610733576040517f08c379a000000000000000000000000000000000000000000000000000000000815260040161072a90612b9f565b60405180910390fd5b61073d8383611404565b505050565b61075361074d6113fc565b826114bd565b610792576040517f08c379a000000000000000000000000000000000000000000000000000000000815260040161078990612d3f565b60405180910390fd5b61079d83838361159b565b505050565b6107bd83838360405180602001604052806000815250610e5b565b505050565b3373ffffffffffffffffffffffffffffffffffffffff166107e283610912565b73ffffffffffffffffffffffffffffffffffffffff1614610838576040517f08c379a000000000000000000000000000000000000000000000000000000000815260040161082f90612d5f565b60405180910390fd5b600073ffffffffffffffffffffffffffffffffffffffff168173ffffffffffffffffffffffffffffffffffffffff1614156108a8576040517f08c379a000000000000000000000000000000000000000000000000000000000815260040161089f90612d7f565b60405180910390fd5b6108b333828461159b565b8073ffffffffffffffffffffffffffffffffffffffff163373ffffffffffffffffffffffffffffffffffffffff16837f16b85f49bf01212961345d3016c9a531894accf62eb7680f2045d79185cc0ec060405160405180910390a45050565b6000806002600084815260200190815260200160002060009054906101000a900473ffffffffffffffffffffffffffffffffffffffff169050600073ffffffffffffffffffffffffffffffffffffffff168173ffffffffffffffffffffffffffffffffffffffff1614156109bb576040517f08c379a00000000000000000000000000000000000000000000000000000000081526004016109b290612bdf565b60405180910390fd5b80915050919050565b60008073ffffffffffffffffffffffffffffffffffffffff168273ffffffffffffffffffffffffffffffffffffffff161415610a35576040517f08c379a0000000000000000000000000000000000000000000000000000000008152600401610a2c90612bbf565b60405180910390fd5b600360008373ffffffffffffffffffffffffffffffffffffffff1673ffffffffffffffffffffffffffffffffffffffff168152602001908152602001600020549050919050565b610a846113fc565b73ffffffffffffffffffffffffffffffffffffffff16610aa2610c3b565b73ffffffffffffffffffffffffffffffffffffffff1614610af8576040517f08c379a0000000000000000000000000000000000000000000000000000000008152600401610aef90612cbf565b60405180910390fd5b610b026000611802565b565b610b0c6113fc565b73ffffffffffffffffffffffffffffffffffffffff16610b2a610c3b565b73ffffffffffffffffffffffffffffffffffffffff1614610b80576040517f08c379a0000000000000000000000000000000000000000000000000000000008152600401610b7790612cbf565b60405180910390fd5b610b8981611390565b610bc8576040517f08c379a0000000000000000000000000000000000000000000000000000000008152600401610bbf90612c5f565b60405180910390fd5b60016009600083815260200190815260200160002060006101000a81548160ff0219169083151502179055503373ffffffffffffffffffffffffffffffffffffffff16817f9ecfd70e9ff36df72989324a49559383d39f9290d700b10cf5ac10dcb68d264360405160405180910390a350565b6000600760009054906101000a900473ffffffffffffffffffffffffffffffffffffffff16905090565b606060018054610c7490612ff5565b80601f0160208091040260200160405190810160405280929190818152602001828054610ca090612ff5565b8015610ced5780601f10610cc257610100808354040283529160200191610ced565b820191906000526020600020905b815481529060010190602001808311610cd057829003601f168201915b5050505050905090565b60085481565b610d0f610d086113fc565b83836118c8565b5050565b610d1b6113fc565b73ffffffffffffffffffffffffffffffffffffffff16610d39610c3b565b73ffffffffffffffffffffffffffffffffffffffff1614610d8f576040517f08c379a0000000000000000000000000000000000000000000000000000000008152600401610d8690612cbf565b60405180910390fd5b6009600082815260200190815260200160002060009054906101000a900460ff16610def576040517f08c379a0000000000000000000000000000000000000000000000000000000008152600401610de690612c1f565b60405180910390fd5b610e01610dfa610c3b565b838361159b565b610e09610c3b565b73ffffffffffffffffffffffffffffffffffffffff16817f8dc7a5ec260c8b3f3d34ab3633dda8aeb90a272abe20c25cd6e6185f580e967484604051610e4f9190612a1b565b60405180910390a35050565b610e6c610e666113fc565b836114bd565b610eab576040517f08c379a0000000000000000000000000000000000000000000000000000000008152600401610ea290612d3f565b60405180910390fd5b610eb784848484611a35565b50505050565b6060610ec882611390565b610f07576040517f08c379a0000000000000000000000000000000000000000000000000000000008152600401610efe90612c7f565b60405180910390fd5b6000600660008481526020019081526020016000208054610f2790612ff5565b80601f0160208091040260200160405190810160405280929190818152602001828054610f5390612ff5565b8015610fa05780601f10610f7557610100808354040283529160200191610fa0565b820191906000526020600020905b815481529060010190602001808311610f8357829003601f168201915b505050505090506000610fb1611a91565b9050600081511415610fc757819250505061100a565b600082511115610ffc578082604051602001610fe49291906129f7565b6040516020818303038152906040529250505061100a565b61100584611aa8565b925050505b919050565b60006008600081548092919061102490613058565b919050555061103533600854611b4f565b61104160085483611b6d565b6008549050919050565b6110536113fc565b73ffffffffffffffffffffffffffffffffffffffff16611071610c3b565b73ffffffffffffffffffffffffffffffffffffffff16146110c7576040517f08c379a00000000000000000000000000000000000000000000000000000000081526004016110be90612cbf565b60405180910390fd5b6009600082815260200190815260200160002060009054906101000a900460ff16611127576040517f08c379a000000000000000000000000000000000000000000000000000000000815260040161111e90612d1f565b60405180910390fd5b60006009600083815260200190815260200160002060006101000a81548160ff0219169083151502179055503373ffffffffffffffffffffffffffffffffffffffff16817f0fe7d9801197f79ef3b1595d19379eb58f0fff5f98b0f6d6f34c03cae5306c3760405160405180910390a350565b6000600560008473ffffffffffffffffffffffffffffffffffffffff1673ffffffffffffffffffffffffffffffffffffffff16815260200190815260200160002060008373ffffffffffffffffffffffffffffffffffffffff1673ffffffffffffffffffffffffffffffffffffffff16815260200190815260200160002060009054906101000a900460ff16905092915050565b6112366113fc565b73ffffffffffffffffffffffffffffffffffffffff16611254610c3b565b73ffffffffffffffffffffffffffffffffffffffff16146112aa576040517f08c379a00000000000000000000000000000000000000000000000000000000081526004016112a190612cbf565b60405180910390fd5b600073ffffffffffffffffffffffffffffffffffffffff168173ffffffffffffffffffffffffffffffffffffffff16141561131a576040517f08c379a000000000000000000000000000000000000000000000000000000000815260040161131190612adf565b60405180910390fd5b61132381611802565b50565b60007f01ffc9a7000000000000000000000000000000000000000000000000000000007bffffffffffffffffffffffffffffffffffffffffffffffffffffffff1916827bffffffffffffffffffffffffffffffffffffffffffffffffffffffff1916149050919050565b60008073ffffffffffffffffffffffffffffffffffffffff166002600084815260200190815260200160002060009054906101000a900473ffffffffffffffffffffffffffffffffffffffff1673ffffffffffffffffffffffffffffffffffffffff1614159050919050565b600033905090565b816004600083815260200190815260200160002060006101000a81548173ffffffffffffffffffffffffffffffffffffffff021916908373ffffffffffffffffffffffffffffffffffffffff160217905550808273ffffffffffffffffffffffffffffffffffffffff1661147783610912565b73ffffffffffffffffffffffffffffffffffffffff167f8c5be1e5ebec7d5bd14f71427d1e84f3dd0314c0f7b2291e5b200ac8c7c3b92560405160405180910390a45050565b60006114c882611390565b611507576040517f08c379a00000000000000000000000000000000000000000000000000000000081526004016114fe90612b7f565b60405180910390fd5b600061151283610912565b90508073ffffffffffffffffffffffffffffffffffffffff168473ffffffffffffffffffffffffffffffffffffffff16148061158157508373ffffffffffffffffffffffffffffffffffffffff16611569846105a5565b73ffffffffffffffffffffffffffffffffffffffff16145b806115925750611591818561119a565b5b91505092915050565b8273ffffffffffffffffffffffffffffffffffffffff166115bb82610912565b73ffffffffffffffffffffffffffffffffffffffff1614611611576040517f08c379a000000000000000000000000000000000000000000000000000000000815260040161160890612aff565b60405180910390fd5b600073ffffffffffffffffffffffffffffffffffffffff168273ffffffffffffffffffffffffffffffffffffffff161415611681576040517f08c379a000000000000000000000000000000000000000000000000000000000815260040161167890612b3f565b60405180910390fd5b61168c838383611be1565b611697600082611404565b6001600360008573ffffffffffffffffffffffffffffffffffffffff1673ffffffffffffffffffffffffffffffffffffffff16815260200190815260200160002060008282546116e79190612f0b565b925050819055506001600360008473ffffffffffffffffffffffffffffffffffffffff1673ffffffffffffffffffffffffffffffffffffffff168152602001908152602001600020600082825461173e9190612e84565b92505081905550816002600083815260200190815260200160002060006101000a81548173ffffffffffffffffffffffffffffffffffffffff021916908373ffffffffffffffffffffffffffffffffffffffff160217905550808273ffffffffffffffffffffffffffffffffffffffff168473ffffffffffffffffffffffffffffffffffffffff167fddf252ad1be2c89b69c2b068fc378daa952ba7f163c4a11628f55a4df523b3ef60405160405180910390a46117fd838383611be6565b505050565b6000600760009054906101000a900473ffffffffffffffffffffffffffffffffffffffff16905081600760006101000a81548173ffffffffffffffffffffffffffffffffffffffff021916908373ffffffffffffffffffffffffffffffffffffffff1602179055508173ffffffffffffffffffffffffffffffffffffffff168173ffffffffffffffffffffffffffffffffffffffff167f8be0079c531659141344cd1fd0a4f28419497f9722a3daafe3b4186f6b6457e060405160405180910390a35050565b8173ffffffffffffffffffffffffffffffffffffffff168373ffffffffffffffffffffffffffffffffffffffff161415611937576040517f08c379a000000000000000000000000000000000000000000000000000000000815260040161192e90612b5f565b60405180910390fd5b80600560008573ffffffffffffffffffffffffffffffffffffffff1673ffffffffffffffffffffffffffffffffffffffff16815260200190815260200160002060008473ffffffffffffffffffffffffffffffffffffffff1673ffffffffffffffffffffffffffffffffffffffff16815260200190815260200160002060006101000a81548160ff0219169083151502179055508173ffffffffffffffffffffffffffffffffffffffff168373ffffffffffffffffffffffffffffffffffffffff167f17307eab39ab6107e8899845ad3d59bd9653f200f220920489ca2b5937696c3183604051611a289190612a82565b60405180910390a3505050565b611a4084848461159b565b611a4c84848484611beb565b611a8b576040517f08c379a0000000000000000000000000000000000000000000000000000000008152600401611a8290612abf565b60405180910390fd5b50505050565b606060405180602001604052806000815250905090565b6060611ab382611390565b611af2576040517f08c379a0000000000000000000000000000000000000000000000000000000008152600401611ae990612cdf565b60405180910390fd5b6000611afc611a91565b90506000815111611b1c5760405180602001604052806000815250611b47565b80611b2684611d82565b604051602001611b379291906129f7565b6040516020818303038152906040525b915050919050565b611b69828260405180602001604052806000815250611f2f565b5050565b611b7682611390565b611bb5576040517f08c379a0000000000000000000000000000000000000000000000000000000008152600401611bac90612bff565b60405180910390fd5b80600660008481526020019081526020016000209080519060200190611bdc929190612187565b505050565b505050565b505050565b6000611c0c8473ffffffffffffffffffffffffffffffffffffffff16611f8a565b15611d75578373ffffffffffffffffffffffffffffffffffffffff1663150b7a02611c356113fc565b8786866040518563ffffffff1660e01b8152600401611c579493929190612a36565b602060405180830381600087803b158015611c7157600080fd5b505af1925050508015611ca257506040513d601f19601f82011682018060405250810190611c9f9190612533565b60015b611d25573d8060008114611cd2576040519150601f19603f3d011682016040523d82523d6000602084013e611cd7565b606091505b50600081511415611d1d576040517f08c379a0000000000000000000000000000000000000000000000000000000008152600401611d1490612abf565b60405180910390fd5b805181602001fd5b63150b7a0260e01b7bffffffffffffffffffffffffffffffffffffffffffffffffffffffff1916817bffffffffffffffffffffffffffffffffffffffffffffffffffffffff191614915050611d7a565b600190505b949350505050565b60606000821415611dca576040518060400160405280600181526020017f30000000000000000000000000000000000000000000000000000000000000008152509050611f2a565b600082905060005b60008214611dfc578080611de590613058565b915050600a82611df59190612eda565b9150611dd2565b60008167ffffffffffffffff811115611e3e577f4e487b7100000000000000000000000000000000000000000000000000000000600052604160045260246000fd5b6040519080825280601f01601f191660200182016040528015611e705781602001600182028036833780820191505090505b5090505b60008514611f2357600182611e899190612f0b565b9150600a85611e9891906130a1565b6030611ea49190612e84565b60f81b818381518110611ee0577f4e487b7100000000000000000000000000000000000000000000000000000000600052603260045260246000fd5b60200101907effffffffffffffffffffffffffffffffffffffffffffffffffffffffffffff1916908160001a905350600a85611f1c9190612eda565b9450611e74565b8093505050505b919050565b611f398383611fad565b611f466000848484611beb565b611f85576040517f08c379a0000000000000000000000000000000000000000000000000000000008152600401611f7c90612abf565b60405180910390fd5b505050565b6000808273ffffffffffffffffffffffffffffffffffffffff163b119050919050565b600073ffffffffffffffffffffffffffffffffffffffff168273ffffffffffffffffffffffffffffffffffffffff16141561201d576040517f08c379a000000000000000000000000000000000000000000000000000000000815260040161201490612c3f565b60405180910390fd5b61202681611390565b15612066576040517f08c379a000000000000000000000000000000000000000000000000000000000815260040161205d90612b1f565b60405180910390fd5b61207260008383611be1565b6001600360008473ffffffffffffffffffffffffffffffffffffffff1673ffffffffffffffffffffffffffffffffffffffff16815260200190815260200160002060008282546120c29190612e84565b92505081905550816002600083815260200190815260200160002060006101000a81548173ffffffffffffffffffffffffffffffffffffffff021916908373ffffffffffffffffffffffffffffffffffffffff160217905550808273ffffffffffffffffffffffffffffffffffffffff16600073ffffffffffffffffffffffffffffffffffffffff167fddf252ad1be2c89b69c2b068fc378daa952ba7f163c4a11628f55a4df523b3ef60405160405180910390a461218360008383611be6565b5050565b82805461219390612ff5565b90600052602060002090601f0160209004810192826121b557600085556121fc565b82601f106121ce57805160ff19168380011785556121fc565b828001600101855582156121fc579182015b828111156121fb5782518255916020019190600101906121e0565b5b509050612209919061220d565b5090565b5b8082111561222657600081600090555060010161220e565b5090565b600061223d61223884612ddf565b612dba565b90508281526020810184848401111561225557600080fd5b612260848285612fb3565b509392505050565b600061227b61227684612e10565b612dba565b90508281526020810184848401111561229357600080fd5b61229e848285612fb3565b509392505050565b6000813590506122b5816137d4565b92915050565b6000813590506122ca816137eb565b92915050565b6000813590506122df81613802565b92915050565b6000815190506122f481613802565b92915050565b600082601f83011261230b57600080fd5b813561231b84826020860161222a565b91505092915050565b600082601f83011261233557600080fd5b8135612345848260208601612268565b91505092915050565b60008135905061235d81613819565b92915050565b60006020828403121561237557600080fd5b6000612383848285016122a6565b91505092915050565b6000806040838503121561239f57600080fd5b60006123ad858286016122a6565b92505060206123be858286016122a6565b9150509250929050565b6000806000606084860312156123dd57600080fd5b60006123eb868287016122a6565b93505060206123fc868287016122a6565b925050604061240d8682870161234e565b9150509250925092565b6000806000806080858703121561242d57600080fd5b600061243b878288016122a6565b945050602061244c878288016122a6565b935050604061245d8782880161234e565b925050606085013567ffffffffffffffff81111561247a57600080fd5b612486878288016122fa565b91505092959194509250565b600080604083850312156124a557600080fd5b60006124b3858286016122a6565b92505060206124c4858286016122bb565b9150509250929050565b600080604083850312156124e157600080fd5b60006124ef858286016122a6565b92505060206125008582860161234e565b9150509250929050565b60006020828403121561251c57600080fd5b600061252a848285016122d0565b91505092915050565b60006020828403121561254557600080fd5b6000612553848285016122e5565b91505092915050565b60006020828403121561256e57600080fd5b600082013567ffffffffffffffff81111561258857600080fd5b61259484828501612324565b91505092915050565b6000602082840312156125af57600080fd5b60006125bd8482850161234e565b91505092915050565b600080604083850312156125d957600080fd5b60006125e78582860161234e565b92505060206125f8858286016122a6565b9150509250929050565b61260b81612f3f565b82525050565b61261a81612f51565b82525050565b600061262b82612e41565b6126358185612e57565b9350612645818560208601612fc2565b61264e8161318e565b840191505092915050565b600061266482612e4c565b61266e8185612e68565b935061267e818560208601612fc2565b6126878161318e565b840191505092915050565b600061269d82612e4c565b6126a78185612e79565b93506126b7818560208601612fc2565b80840191505092915050565b60006126d0603283612e68565b91506126db8261319f565b604082019050919050565b60006126f3602683612e68565b91506126fe826131ee565b604082019050919050565b6000612716602583612e68565b91506127218261323d565b604082019050919050565b6000612739601c83612e68565b91506127448261328c565b602082019050919050565b600061275c602483612e68565b9150612767826132b5565b604082019050919050565b600061277f601983612e68565b915061278a82613304565b602082019050919050565b60006127a2602c83612e68565b91506127ad8261332d565b604082019050919050565b60006127c5603883612e68565b91506127d08261337c565b604082019050919050565b60006127e8602a83612e68565b91506127f3826133cb565b604082019050919050565b600061280b602983612e68565b91506128168261341a565b604082019050919050565b600061282e602e83612e68565b915061283982613469565b604082019050919050565b6000612851602483612e68565b915061285c826134b8565b604082019050919050565b6000612874602083612e68565b915061287f82613507565b602082019050919050565b6000612897601583612e68565b91506128a282613530565b602082019050919050565b60006128ba603183612e68565b91506128c582613559565b604082019050919050565b60006128dd602c83612e68565b91506128e8826135a8565b604082019050919050565b6000612900602083612e68565b915061290b826135f7565b602082019050919050565b6000612923602f83612e68565b915061292e82613620565b604082019050919050565b6000612946602183612e68565b91506129518261366f565b604082019050919050565b6000612969601483612e68565b9150612974826136be565b602082019050919050565b600061298c603183612e68565b9150612997826136e7565b604082019050919050565b60006129af602383612e68565b91506129ba82613736565b604082019050919050565b60006129d2602383612e68565b91506129dd82613785565b604082019050919050565b6129f181612fa9565b82525050565b6000612a038285612692565b9150612a0f8284612692565b91508190509392505050565b6000602082019050612a306000830184612602565b92915050565b6000608082019050612a4b6000830187612602565b612a586020830186612602565b612a6560408301856129e8565b8181036060830152612a778184612620565b905095945050505050565b6000602082019050612a976000830184612611565b92915050565b60006020820190508181036000830152612ab78184612659565b905092915050565b60006020820190508181036000830152612ad8816126c3565b9050919050565b60006020820190508181036000830152612af8816126e6565b9050919050565b60006020820190508181036000830152612b1881612709565b9050919050565b60006020820190508181036000830152612b388161272c565b9050919050565b60006020820190508181036000830152612b588161274f565b9050919050565b60006020820190508181036000830152612b7881612772565b9050919050565b60006020820190508181036000830152612b9881612795565b9050919050565b60006020820190508181036000830152612bb8816127b8565b9050919050565b60006020820190508181036000830152612bd8816127db565b9050919050565b60006020820190508181036000830152612bf8816127fe565b9050919050565b60006020820190508181036000830152612c1881612821565b9050919050565b60006020820190508181036000830152612c3881612844565b9050919050565b60006020820190508181036000830152612c5881612867565b9050919050565b60006020820190508181036000830152612c788161288a565b9050919050565b60006020820190508181036000830152612c98816128ad565b9050919050565b60006020820190508181036000830152612cb8816128d0565b9050919050565b60006020820190508181036000830152612cd8816128f3565b9050919050565b60006020820190508181036000830152612cf881612916565b9050919050565b60006020820190508181036000830152612d1881612939565b9050919050565b60006020820190508181036000830152612d388161295c565b9050919050565b60006020820190508181036000830152612d588161297f565b9050919050565b60006020820190508181036000830152612d78816129a2565b9050919050565b60006020820190508181036000830152612d98816129c5565b9050919050565b6000602082019050612db460008301846129e8565b92915050565b6000612dc4612dd5565b9050612dd08282613027565b919050565b6000604051905090565b600067ffffffffffffffff821115612dfa57612df961315f565b5b612e038261318e565b9050602081019050919050565b600067ffffffffffffffff821115612e2b57612e2a61315f565b5b612e348261318e565b9050602081019050919050565b600081519050919050565b600081519050919050565b600082825260208201905092915050565b600082825260208201905092915050565b600081905092915050565b6000612e8f82612fa9565b9150612e9a83612fa9565b9250827fffffffffffffffffffffffffffffffffffffffffffffffffffffffffffffffff03821115612ecf57612ece6130d2565b5b828201905092915050565b6000612ee582612fa9565b9150612ef083612fa9565b925082612f0057612eff613101565b5b828204905092915050565b6000612f1682612fa9565b9150612f2183612fa9565b925082821015612f3457612f336130d2565b5b828203905092915050565b6000612f4a82612f89565b9050919050565b60008115159050919050565b60007fffffffff0000000000000000000000000000000000000000000000000000000082169050919050565b600073ffffffffffffffffffffffffffffffffffffffff82169050919050565b6000819050919050565b82818337600083830152505050565b60005b83811015612fe0578082015181840152602081019050612fc5565b83811115612fef576000848401525b50505050565b6000600282049050600182168061300d57607f821691505b6020821081141561302157613020613130565b5b50919050565b6130308261318e565b810181811067ffffffffffffffff8211171561304f5761304e61315f565b5b80604052505050565b600061306382612fa9565b91507fffffffffffffffffffffffffffffffffffffffffffffffffffffffffffffffff821415613096576130956130d2565b5b600182019050919050565b60006130ac82612fa9565b91506130b783612fa9565b9250826130c7576130c6613101565b5b828206905092915050565b7f4e487b7100000000000000000000000000000000000000000000000000000000600052601160045260246000fd5b7f4e487b7100000000000000000000000000000000000000000000000000000000600052601260045260246000fd5b7f4e487b7100000000000000000000000000000000000000000000000000000000600052602260045260246000fd5b7f4e487b7100000000000000000000000000000000000000000000000000000000600052604160045260246000fd5b6000601f19601f8301169050919050565b7f4552433732313a207472616e7366657220746f206e6f6e20455243373231526560008201527f63656976657220696d706c656d656e7465720000000000000000000000000000602082015250565b7f4f776e61626c653a206e6577206f776e657220697320746865207a65726f206160008201527f6464726573730000000000000000000000000000000000000000000000000000602082015250565b7f4552433732313a207472616e736665722066726f6d20696e636f72726563742060008201527f6f776e6572000000000000000000000000000000000000000000000000000000602082015250565b7f4552433732313a20746f6b656e20616c7265616479206d696e74656400000000600082015250565b7f4552433732313a207472616e7366657220746f20746865207a65726f2061646460008201527f7265737300000000000000000000000000000000000000000000000000000000602082015250565b7f4552433732313a20617070726f766520746f2063616c6c657200000000000000600082015250565b7f4552433732313a206f70657261746f7220717565727920666f72206e6f6e657860008201527f697374656e7420746f6b656e0000000000000000000000000000000000000000602082015250565b7f4552433732313a20617070726f76652063616c6c6572206973206e6f74206f7760008201527f6e6572206e6f7220617070726f76656420666f7220616c6c0000000000000000602082015250565b7f4552433732313a2062616c616e636520717565727920666f7220746865207a6560008201527f726f206164647265737300000000000000000000000000000000000000000000602082015250565b7f4552433732313a206f776e657220717565727920666f72206e6f6e657869737460008201527f656e7420746f6b656e0000000000000000000000000000000000000000000000602082015250565b7f45524337323155524953746f726167653a2055524920736574206f66206e6f6e60008201527f6578697374656e7420746f6b656e000000000000000000000000000000000000602082015250565b7f546f6b656e206d757374206265206c6f636b6564206265666f7265206272696460008201527f67696e6700000000000000000000000000000000000000000000000000000000602082015250565b7f4552433732313a206d696e7420746f20746865207a65726f2061646472657373600082015250565b7f546f6b656e20646f6573206e6f742065786973742e0000000000000000000000600082015250565b7f45524337323155524953746f726167653a2055524920717565727920666f722060008201527f6e6f6e6578697374656e7420746f6b656e000000000000000000000000000000602082015250565b7f4552433732313a20617070726f76656420717565727920666f72206e6f6e657860008201527f697374656e7420746f6b656e0000000000000000000000000000000000000000602082015250565b7f4f776e61626c653a2063616c6c6572206973206e6f7420746865206f776e6572600082015250565b7f4552433732314d657461646174613a2055524920717565727920666f72206e6f60008201527f6e6578697374656e7420746f6b656e0000000000000000000000000000000000602082015250565b7f4552433732313a20617070726f76616c20746f2063757272656e74206f776e6560008201527f7200000000000000000000000000000000000000000000000000000000000000602082015250565b7f546f6b656e206973206e6f74206c6f636b65642e000000000000000000000000600082015250565b7f4552433732313a207472616e736665722063616c6c6572206973206e6f74206f60008201527f776e6572206e6f7220617070726f766564000000000000000000000000000000602082015250565b7f4f6e6c7920746865206f776e65722063616e207472616e73666572206120746f60008201527f6b656e0000000000000000000000000000000000000000000000000000000000602082015250565b7f43616e6e6f74207472616e7366657220746f20746865207a65726f206164647260008201527f6573730000000000000000000000000000000000000000000000000000000000602082015250565b6137dd81612f3f565b81146137e857600080fd5b50565b6137f481612f51565b81146137ff57600080fd5b50565b61380b81612f5d565b811461381657600080fd5b50565b61382281612fa9565b811461382d57600080fd5b5056fea264697066735822122066328aa14619f823df396432386287451d588cdec12484226fc4b50adecd6c6164736f6c63430008040033",
  "linkReferences": {},
  "deployedLinkReferences": {}
}